:100000000C94DC160C9404170C9404170C9404172D
:100010000C9404170C9404170C9404170C940417F4
:100020000C9404170C9404170C9405240C94742459
:100030000C9404170C9404170C9404170C940417D4
:100040000C9404170C9404170C9404170C940417C4
:100050000C9404170C9404170C9404170C94A62603
:100060000C9404170C9404170C9404170C940417A4
:100070000C9404170C9404170C9404170C94041794
:100080000C94F0260C9404170C9404170C94041789
:100090000C9404170C9404170C9404170C94041774
:1000A0000C9404170C9404170C9404174018FF0FB9
:1000B000E0390C06C2E371713939393939B9B939C6
:1000C0007979F9F9E9C1830E189DC4E4E5E50404E2
:1000D0001C11188F81C1C9C9D9F1E382063C301FB8
:1000E0008181C9C9D9F1F3E2060C3C0603F1FF0096
:1000F000FF80001F31202C263E1C000000FFFFFF68
:1001000003323001030FFFFF7C0000FFFFFF000000
:10011000003CFFFFC381001818000081C0003CFFB5
:10012000FFFFD9981C3E000181C0700000F1FFF86C
:10013000C001812161610101FF838190989F9F9F90
:100140009C9C8C8EC6476321301010111313121023
:10015000101C18111113131313131111180C0E186E
:1001600011111313131313111118080C0701FF0FAA
:10017000E0F9FCFEFEFF7F7F3F3F3F3B39B9B939D5
:100180007979F9F9E9C1830E189DC4E4E5E5040421
:100190001C11188F81C1C9C9D9F1E382063C301FF7
:1001A0008181C9C9D9F1F3E2060C3C0603F1FF00D5
:1001B000FF8F071F31202C263E1C000000FFFFFF91
:1001C00003323001030FFFFF7C0000FFFFFF000040
:1001D000003CFFFFC381001818000081C0003CFFF5
:1001E000FFFFD9981C3E000181C0700000F1FFF8AC
:1001F000C001812161610101FF838190989F9F9FD0
:100200009C9C8C8EC6476321301010111313121062
:10021000101C18111113131313131111180C0E18AD
:1002200011111313131313111118080C0701FF0FE9
:10023000E0F9FCFEFEFFFFFFFFFFFFFFFFFFFFFFF8
:10024000FFFFFFFFFFFFFFFEF8FDFCFCFDFD7C7CD8
:100250003C31189F8FCFCFCFDFF3E382063C301FB6
:100260008181C9C9D9F1F3E2060C3C0603F1FF0014
:10027000FFFFFFFFFFFFFFFFFFFFFFFFFFFFFFFF8E
:100280007F3F3F0F0F0FFFFF7F0101FFFFFF0000C8
:10029000003CFFFFC381001818000081C0003CFF34
:1002A000FFFFD9981C3E000181C0700000F1FFF8EB
:1002B000C001812161610101FF8F87939B9F9F9FF7
:1002C0009C9C8C8EC64763213010101113131210A2
:1002D000101C18111113131313131111180C0E18ED
:1002E00011111313131313111118080C0701FF0F29
:1002F000E0F9FCFEFEFFFFFFFFFFFFFFFFFFFFFF38
:10030000FFFFFFFFFFFFFFFEF8FDFCFCFDFDFCFC17
:10031000FCF1F8FFFFFFFFFFFFFFFFFEFEFCF0FF19
:10032000FFFFFFFFFFFFFFFEFE7C3C3E1FFFFF00C5
:10033000FFFFFFFFFFFFFFFFFFFFFFFFFFFFFFFFCD
:10034000FFFFFFFFFFFFFFFFFFFFFFFFFFFFFFFFBD
:10035000FFFFFFFFFFFFFF7F7F3F3F9FDF1F3FFF4D
:10036000FFFFDF9B1F3F010181C0700000F1FFF81C
:10037000C001812161610101FFFFFFFFFFFFFFFF5E
:10038000FFFFFFFFFF7F7F3F3F1F1F1F1F1F171331
:10039000131F1B111113131313131111180C0E1823
:1003A0001111131313131319191C0C0E0701FF0F4E
:1003B000E0F9FCFEFEFFFFFFFFFFFFFFFFFFFFFF77
:1003C000FFFFFFFFFFFFFFFEF8FDFCFCFDFDFCFC57
:1003D000FCF1F8FFFFFFFFFFFFFFFFFEFEFCF0FF59
:1003E000FFFFFFFFFFFFFFFEFEFCFCFEFFFFFF0025
:1003F000FFFFFFFFFFFFFFFFFFFFFFFFFFFFFFFF0D
:10040000FFFFFFFFFFFFFFFFFFFFFFFFFFFFFFFFFC
:10041000FFFFFFFFFFFFFFFFFFFFFFFFFFFFFFFFEC
:10042000FFFFFFFFFFFFFFFFFFFFFFFFFFFFFFF8E3
:10043000C001812161610101FFFFFFFFFFFFFFFF9D
:10044000FFFFFFFFFF7F7F3F3F1F1F1F1F1F1F1F5C
:100450001F1F1F1F1F1F1F1F1F1F1F1F1F0F0F1FCC
:100460001F1F1F1F1F1F1F1F1F1F0F0F0701FF0F22
:10047000E0390C0ECEEF7F7F3F3F3F3F3FBFBF3F96
:100480007F7FFFFFFFFFBF3E38BDFCFCFDFD7C7C96
:100490007C7178FFFFFFFFFFFFFFFFFEFEFCF0FF18
:1004A000FFFFFFFFFFFDFBF2F6ECFCC6C3F1FF0010
:1004B000FFE0E0DFF1E0ECE6BE9C808000FFFFFFA4
:1004C00003323001030FFFFF7C0000FFFFFF00003D
:1004D000003CFFFFC381001919010183C3033FFFE3
:1004E000FFFFDF9F3F7FFFFFFFFFFFFFFFFFFFF8E3
:1004F000C001812161610101FFFFFFFFFFFFFFFFDD
:10050000FEFCFCFEFE7F7B31301010111313121025
:10051000101C18111113131313131111180C0E18AA
:100520001111131313131311131F0F0F0701FF0FD3
:10053000E0390C0ECEE773733B3B3B3B3BBBBB3B15
:100540007B7BFBFBEBC3830E189DDCFCFDFD1C1CC1
:100550003C3138BFBFFFFFFFFFFFFFFE7E7CF0FF97
:10056000FFFFFFFFFFFDFBF2F6ECFCC6C3F1FF004F
:10057000FFE0E0DFF1E0ECE6BE9C000000FFFFFFE3
:1005800003323001030FFFFF7C0000FFFFFF00007C
:10059000003CFFFFC381001818000081C0003CFF31
:1005A000FFFFD9991D3F010183C3730707F7FFF8C8
:1005B000C001812161610101FFFFFFFEFEFFFFFF1E
:1005C000FCFCFCFEF677733130101011131312107F
:1005D000101C18111113131313131111180C0E18EA
:1005E00011111313131313111118080C0701FF0F26
:1005F000E0390C0EC6E371713939393939B9B93975
:100600007979F9F9E9C1830E189DC4E4E5E504049C
:100610001C11188F81C1C9C9D9F1E382063C301F72
:100620008181C9C9D9F1F3E2060C3C0603F1FF0050
:10063000FFE0E0DFF1E0ECE6BE9C000000FFFFFF22
:1006400003323001030FFFFF7C0000FFFFFF0000BB
:10065000003CFFFFC381001818000081C0003CFF70
:10066000FFFFD9981C3E000181C0700007F7FFF81A
:10067000C001812161610101FFFFFFF8F8FFDFDFA9
:100680009C9C8C8EC64763213010101113131210DE
:10069000101C18111113131313131111180C0E1829
:1006A00011111313131313111118080C07011989D1
:1006B000F901F1F949590103CE662232B2F2F27220
:1006C00072727273F1F0781C000067CC9892939B61
:1006D00009C8CBCBC9C8C8C9CBCAC8C9480F818112
:1006E000C9C9D9F1F3E2060C39E30016FFFF654DE5
:1006F000484C476320301C8404FC0000FFFFFF1CB3
:100700001C3F7E0001E0F83C3E7F7B71F1FFFF0063
:1007100002333100FFFFFF01313307003CFFFFFFD1
:10072000D9981C3E000181C0700302FE00FF80E0EA
:10073000780038980860F301FC8780909F9F9F9015
:10074000908383F81031232624242020331313139D
:10075000131010121313131310180F0C0818111183
:100760001313131313111118080C0603F0FF198942
:10077000F901F1F949590103CE662232B2F2F2725F
:1007800072727273F1F0781C000067CC9892939BA0
:1007900009C8CBCBC9C8C8C9CBCAC8C9480F818151
:1007A000C9C9D9F1F3F2FEFCF9E30016FFFF654D6C
:1007B000484C476320301C8404FC0000FFFFFF1CF2
:1007C0001C3F7E0001E0F83C3E7F7B71F1FFFF8023
:1007D00082F3F1E0FFFFFFF9FDFFFFFEFFFFFFFFE8
:1007E000FFFFFFFFFFFFFFFFFFFFFEFE00FF80E0B8
:1007F000780038980860F301FC8780909F9F9F9055
:10080000908383F8103123363C3C3C3C3F1F1F1F34
:100810001F1F1F1F1F1F1F1F1F1F0F0F0F1F1F1F18
:100820001F1F1F1F1F1F1F1F0F0F0703F0FF198917
:10083000F901F1F949590103CE662232B2F2F2729E
:1008400072727273F1F0781C000067CC9892939BDF
:1008500009C8CBCBC9C8C8C9CBEAE8F9F8FFFFFF84
:10086000FFFFFFFFFFFEFEFCF9E30016FFFF654DF3
:10087000484C476320301C8404FC0000FFFFFF1C31
:100880001C3F7E0001E0F8FCFEFFFBF1F1FFFFF8EA
:10089000FEFFFFFEFFFFFFFFFFFFFFFFFFFFFFFF6A
:1008A000FFFFFFFFFFFFFFFFFFFFFEFE00FF80E0F7
:1008B000780038980860F301FCFFF8FCFFFFFFFEAA
:1008C000FEFFFFFF1F3F3F3F3F3F3F3F3F1F1F1FB9
:1008D0001F1F1F1F1F1F1F1F1F1F0F0F0F1F1F1F58
:1008E0001F1F1F1F1F1F1F1F0F0F0703F0FF1F8F4B
:1008F000FF07F3FB49590103CE662232B2F2F2F24E
:10090000F2F2F2FBF9FCFEFFFFFFFFFCF8F2F3FB53
:10091000F9F8FBFBF9F8F8F9FBFAF8F9F8FFFFFF33
:10092000FFFFFFFFFFFEFEFCF9E30016FFFF654D32
:10093000484C676330301C8404FCFEFEFFFFFFFF61
:10094000FFFFFFFFFFFFFFFFFFFFFFFFFFFFFFFFB7
:10095000FFFFFFFFFFFFFFFFFFFFFFFFFFFFFFFFA7
:10096000FFFFFFFFFFFFFFFFFFFFFEFE00FF80E036
:10097000780038980860F301FCFFFFFFFFFFFFFFDE
:10098000FFFFFFFF1F3F3F3F3F3F3F3F3F1F1F1FF7
:100990001F1F1F1F1F1F1F1F1F1F0F0F0F1F1F1F97
:1009A0001F1F1F1F1F1F1F1F0F0F0703F0FFFFFF3A
:1009B000FFFFFFFFFFFFFFFFFEFEFEFEFEFEFEFE4F
:1009C000FEFEFEFFFFFFFFFFFFFFFFFCF8F2F3FB61
:1009D000F9F8FBFBF9F8F8F9FBFAF8F9F8FFFFFF73
:1009E000FFFFFFFFFFFEFEFCF9E30016FFFF7F7F26
:1009F0007F7F7F7F3F3F1F8707FFFFFFFFFFFFFFD7
:100A0000FFFFFFFFFFFFFFFFFFFFFFFFFFFFFFFFF6
:100A1000FFFFFFFFFFFFFFFFFFFFFFFFFFFFFFFFE6
:100A2000FFFFFFFFFFFFFFFFFFFFFEFE00FF80E075
:100A3000780038980860F301FCFFFFFFFFFFFFFF1D
:100A4000FFFFFFFF1F3F3F3F3F3F3F3F3F1F1F1F36
:100A50001F1F1F1F1F1F1F1F1F1F0F0F0F1F1F1FD6
:100A60001F1F1F1F1F1F1F1F0F0F0703F0FF998955
:100A7000F901F1F949590103CE662232B2F2F2725C
:100A800072727273F3F37F1F0F0F7FDC98B2B3BBE8
:100A900039F8FBFBF9F8F8F9FBFAF8F9F8FFFFFF72
:100AA000FFFFFFFFFFFEFEFCF9E30016FFFF7F7F65
:100AB0007F7F7F7F3E3E1C8404FCF0F0FFFFFFFC45
:100AC000DCFFFE8081E0F83C3E7F7B71F1FFFF00A0
:100AD00002333100FFFFFF01313307003DFFFFFF0D
:100AE000D9991D3F010383C3730302FE00FF80E019
:100AF000780038980860F301FCFFFFFFFFFFFFFF5D
:100B0000FFFFFFFF1F3F3F3F3E3E3E3E3F1F1F1F79
:100B10001B18181A1313131310180F0C081811119F
:100B20001313131313111118080C0603F0FF19897E
:100B3000F901F1F949590103CE662232B2F2F2729B
:100B400072727273F1F1791D010167CC9892939BD7
:100B500009C8CBCBC9C8C8C9CBCAC8C9481F9FBF21
:100B6000FFFFFFFFFFFEFEFCF9E30016FFFF6F4FE4
:100B70004E5C5F7F38381C8404FCE0E0FFFFFF9C84
:100B80009CBF7E0001E0F83C3E7F7B71F1FFFF00DF
:100B900002333100FFFFFF01313307003CFFFFFF4D
:100BA000D9981C3E010383C3730302FE00FF80E05B
:100BB000780038980860F301FC8781919F9F9F9788
:100BC000978F8FFF1F3F3F3E3E3E3C3C3F1B1B1B12
:100BD0001B1010121313131310180F0C08181111F7
:100BE0001313131313111118080C0603F0FF1989BE
:100BF000F901F1F949590103CE662232B2F2F272DB
:100C000072727273F1F0781C000067CC9892939B1B
:100C100009C8CBCBC9C8C8C9CBCAC8C9480F9F9F90
:100C2000DFDFDFFFFFFE3E7C79E30016FFFF6F4F43
:100C30004E4C476720301C8404FC0000FFFFFF1C63
:100C40001C3F7E0001E0F83C3E7F7B71F1FFFF001E
:100C500002333100FFFFFF01313307003CFFFFFF8C
:100C6000D9981C3E000181C0700302FE00FF80E0A5
:100C7000780038980860F301FC8780909F9F9F90D0
:100C8000908383F810312326242420203313131358
:100C9000131010121313131310180F0C081811113E
:100CA0001313131313111118080C0603F0FF40104F
:100CB000F03030F070707060606060606060606044
:100CC0006060606060606060606060606060606024
:100CD0006060606060606060606060E030180C04BC
:100CE00014741404747454046434640474346434E4
:100CF0000F0F010D08030600030706000604010399
:100D0000070604010104060301040D090306000A95
:100D10000B010C0903030104060300070703010D7F
:100D200007030301050703010307010F0D01030773
:100D300074040404643464047434640474544464B3
:100D4000040C1830E060606060606060606060604B
:100D50006060606060606060606060606060606093
:100D6000606060606060606060607070F03030F0A3
:100D700005010307050501070705010B0F07010F13
:100D80000F03090D05000B0B0A080A0B09000E07DB
:100D90000300060600090B030B0A00070E0C0103F3
:100DA0000002030100020303010C090307030F0FF4
:100DB0003C38000000000080F8FE0FE3FB1B0B0B2B
:100DC0008BFBF3F7F6F6F60606ECECECECECECEC51
:100DD000ECECECECECECECEEE6F6F6F6F7F3FBFB09
:100DE000CBCBFBE30FFEF8801E332121339E0000A6
:100DF0000080F8FF0FE0F8F9F9F9F9F9F9F9F1F3E2
:100E0000F3F3F3F0F0FFFFFFFFFFFFFFFFFFFFFF34
:100E1000FFFFFFFFFFFFFFFFFFFFFFFFFFFF7F7FE2
:100E2000FEE00FFFF880060600000000000F3FF014
:100E3000C607040407070707070707070707070789
:100E4000FFFFFFFFFFFFFFFFFFFFFFFFFFFFFFFFB2
:100E50000707070707078787070726860707C6F0DC
:100E60003F1F00808000000000000000030784C4D2
:100E7000E4E4E4E4E4E4E4E4C49C000FE7E7E7E747
:100E8000E7E7E7E7E7E7C7870F1F0FC7E7E0ECE40F
:100E9000E4E4E5E5E4C4040404070300C040C3033C
:100EA00011000000000000000000FFFFFFFFFF39FD
:100EB0003939FFFFFF0FE0E0EFEF0FFFFF18387940
:100EC000FFFFF703E0E0EFEF0FFFF9F0F0FCFDFDAF
:100ED000FD0DECE0E0E00000012101000000000059
:100EE00080C0602060C080000000000C0C007EFE0E
:100EF000803C3E1C1C1C1C1C0C0C0E0C0C0C0C0E08
:100F00001E1C1C1C1C3C3E80FE7E00000000C0E03D
:100F1000E0C000000000030300000E1B3166C68025
:100F2000D060311B0E00003828380001471E3820E1
:100F3000202020301010D0D0101090103020202011
:100F400020381E0701000006060000010100000015
:100F50000000000000004020FFFF008CD9C3760095
:100F60009B50405050404050405050504050405096
:100F70005848405E4E4450424E5C58424652585C7F
:100F80004642585842565644505E4650584C404C83
:100F90005C5850464E5F4740FFFF00CD407616C07C
:100FA0009F202F25252F202F25252B2021212F2164
:100FB000212020202F25252F202F22242F202F29CC
:100FC000292620C000C94F4900CF4949C600CF4B50
:100FD0004B8900CFC5C54F00FFFF80B416C7701CFA
:100FE000C1E96C07612C8DD9DB03309A83216CCF6A
:100FF0008124B697C06E0359DC863398D9DB802DE7
:101000006DC910C7E88B0A4AC88B8A0A4BC88B0A7D
:101010008AC908CB4A0A8AC80F0C0C0F0E0E0E069E
:101020000606060606060606060606060606060660
:101030000606060606060606060606060606060650
:101040000606060606060606060606060606060640
:1010500006060606060606065950444643494C460F
:10106000505A52464C5C4048585040485858405C92
:101070004450585C4C4450585A424E58425E4C4082
:10108000584E42585046525858425654404C5C585C
:10109000800C78624F00FFFF0000490000864D4938
:1010A000CBC300000F0909C900CF4545CF00CBCB0A
:1010B000CB0FC04141CF0140CF4303C320292F298B
:1010C000202D22222D202F2B2B29202F28282820AD
:1010D0001F006F663200FFFF48088AC848490BCAE4
:1010E000CA480888C9CA0ACBC88B0A4ACB08CACAE8
:1010F0008B088BC9C90A88CACB4A08C7603092C717
:10110000E3690CE7733280DD0D44E18B3B9BC3C880
:101110009B31B436A780FFFF0606060606060606C4
:10112000060606060606060606060606060606065F
:10113000060606060606060606060606060606064F
:10114000060606060606060606060606060606063F
:1011500006060E0E0F0C0C0F1B080306060E0A02E5
:101160000202020206060E1C0E060602020202021D
:101170000A0E06060300000306060E0A0202020615
:10118000060E1C0E06060202020A0E0606030000E8
:10119000190800FF00FF7FFF41FF77FF77FF41FF46
:1011A0007FFF41FF55FF55FF5DFF7FFF41FF5FFF61
:1011B00050FF50FF7FFF41FF75FF15FF11FF1FFF1D
:1011C00000FF00FF00FF00FF7FFF41FF75FF15FFDD
:1011D00011FF7FFF41FF5FFF50FF50FF7FFF41FF87
:1011E0006DFF6DFF41FF7FFF11FF77FF47FF71FF2D
:1011F0001FFF00FF00FF00FF00FF77FF5DFF41FFC3
:101200005DFF7FFF41FF7BFF36FF6FFF41FF7FFFE9
:1012100041FF75FF15FF1DFF7FFF41FF5DFF5DFF74
:1012200041FF7FFF00FF00FF00FF00FF7FFF41FF46
:101230005DFF5DFF5FFF7FFF41FF5DFF5DFF41FFE2
:101240007FFF41FF7BFF77FF41FF7FFF41FF75FF7E
:1012500015FF1DFF07FF00FF00FF00FF00FF7FFFDE
:1012600041FF5DFF5DFF5DFF41FF7FFF41FF75FFB8
:1012700015FF1DFF7FFF41FF75FF15FF1DFF07FFD6
:1012800000FF00FF000000000000000000FF00FF62
:1012900000FF00FF7FFF41FF5DFF5DFF5DFF41FF3E
:1012A0007FFF41FF7BFF36FF6FFF41FF7FFF00FFA6
:1012B00000FF00FF00FF000000000000000000FF32
:1012C00000FF7FFF51FF55FF55FF45FF7FFF41FFA7
:1012D00075FF15FF1DFF7FFF5DFF49FF77FF49FF8A
:1012E0005DFF7FFF00FF00FF000000000000000026
:1012F00000FFFFFF80FFBEFF88FF88FFBEFF80FF6B
:10130000BEFFAAFFAAFFA2FF80FFBEFFA0FFAFFFA4
:10131000AFFF80FFBEFF8AFFEAFFEEFFE0FFFFFFA7
:1013200000FF00FFFFFF80FFBEFF8AFFEAFFEEFF26
:1013300080FFBEFFA0FFAFFFAFFF80FFBEFF92FFA9
:1013400092FFBEFF80FFEEFF88FFB8FF8EFFE0FF39
:10135000FFFF00FF00FFFFFF88FFA2FFBEFFA2FF0D
:1013600080FFBEFF84FFC9FF90FFBEFF80FFBEFF6E
:101370008AFFEAFFE2FF80FFBEFFA2FFA2FFBEFFDF
:1013800080FFFFFF00FF00FFFFFF80FFBEFFA2FF07
:10139000AAFFA8FF80FFBEFFA2FFA2FFBEFF80FF43
:1013A000BEFF84FF88FFBEFF80FFBEFF8AFFEAFF0B
:1013B000E2FFF8FFFFFF00FF00FFFFFF80FFBEFF1F
:1013C000A2FFA2FFA2FFBEFF80FFBEFF8AFFEAFFCF
:1013D000E2FF80FFBEFF8AFFEAFFE2FFF8FFFFFFA8
:1013E00000FF000000000000000000FFFFFFFFFF03
:1013F000FFFF80FFBEFFA2FFA2FFA2FFBEFF80FF94
:10140000BEFF84FFC9FF90FFBEFF80FFFFFFFFFF0D
:10141000FFFF00FF000000000000000019080001AD
:1014200001010101010101010101010101010101AC
:10143000010101010101000001010101010101019E
:101440000101010101010101010101000000000091
:101450004010FFCFCEFCF9F3E6F0FBF0E0607070D7
:1014600020203030203030302030383830263634AC
:1014700030222E3C38222632382C2632383832267A
:101480002634303622383C2C202C3C3830262E2F67
:1014900027301212121212121212121212121313F7
:1014A000131313131313131313131313131313130C
:1014B00013131313131313131313131313131313FC
:1014C00013131313131313131313131313131313EC
:1014D000131339382C2633393C263038302030303D
:1014E0003020303020303030202C2430383C2C2438
:1014F00030382A222E3832362430382C243030240A
:101500002C3C3830246C606CFCF8E0ECF8F2FFCE38
:10151000CFFF1313131313131313131313131313F3
:10152000131313131313131313131313131313138B
:10153000131313131313131313131313131313137B
:101540001313131313131312121212121212121274
:1015500012120810FEFF87030387FFFE0103030337
:1015600003030301000406FFFFFF00000003030361
:10157000030303030687C7E3F37F3F1E030303034D
:10158000030303038383931B3FFFF7E30103030379
:101590000303030170786C60FFFFFF600000000030
:1015A000030303009F9F9F1B3BF3F3E3010303032C
:1015B00003030301FCFEF73333F3F7E601030303F0
:1015C000030303010303E3FBFF0F0703000003030F
:1015D00003000000C0EEFF3333FFEEC0010303033E
:1015E000030303019EBF3F3333BFFFFE0103030329
:1015F000030301001208001E2121001E21211E00EC
:101600003F003F0204083F00000000001824243F70
:10161000000C0A093F000000000000000000182430
:10162000243F001E252518000000000000000000D7
:101630001824243F001A25251A000000000000008D
:101640001824243F00223F20001E21211E000000FC
:1016500000001824243F00223F20002231292600C8
:10166000000000001824243F0022312926001E21FA
:10167000211E00001824243F00223F20001E2121AB
:101680001E001E21211E1810FEFF01010101010193
:101690000101010101010703010000000103070E20
:1016A0001F3F2020202020202020202020203830F4
:1016B000200000002030381C23280000000000001B
:1016C000000000000000000080808080808080009A
:1016D000000000000000000000000000000000000A
:1016E00000000000000000C0701CC7711C8E8A8AB8
:1016F0001871C3060C983060C08000000000000024
:10170000000000000000C0701CC7711C07E1F079E8
:101710003939F363060FFFFCF1C70238F103FE000D
:1017200000000000000000FC87317C6761606E787B
:1017300073676E6C7C7C7C7E7F6F6761637F7C31BE
:1017400080FF000000000000000000010101010115
:101750000101010101010101010101010101010179
:101760000101010100000000000000000000000075
:1017700000000080C06020A0A0A02020202060C029
:10178000800000000000000000000000000080C099
:10179000603098CC6633190CC687FFFF01FC0687C2
:1017A000878E1C39F3C69C3060C00000000000002A
:1017B000FE0378CEE339FF8703139EC0FF7FFF004F
:1017C000FF70180801038EF80103FF1C19F3C61CF3
:1017D000F000000103060C193367CF9F3767C3C1C0
:1017E000E07F00EF00CC587131B998DE4F6D2436A0
:1017F00013190C07000000000000000000000103A6
:1018000002060404040404040602030101000000AB
:1018100000000000000000000000000000000000C8
:1018200000000000000080C0404040404040404078
:101830004040404040C08000000000000000000028
:101840000080C06030180C8693D9CCE8E2737379BD
:1018500079FDECE6C687FFFE00FF000000000000F7
:101860000000007FC19CB03E6341C19CBE070138AF
:101870007CFEE6C4C0E17F3F8FFFFF00FF00000059
:101880000000000000000000000101030206040D3A
:10189000091B1236246C48D892B223617F3F80FF27
:1018A0000000000000000000000000000000000038
:1018B0000000000000000000000000000101010124
:1018C0000101000000000000000000000000808016
:1018D000C0406020B0905848686848D890B02060F8
:1018E00040C08080000000000000000000FC068373
:1018F00099BD3C6642C3F9FCC6829A929ADECEE05C
:10190000B199C366763C9D892306FC000000000067
:10191000FF00FF01F1793B3AF6E40D891BF306E67F
:101920003213C1613012920301E101FF00FF000098
:101930000000007FC09FB0276C78F3F1B09C0700D7
:10194000FF00FF801F31208083C94C6723B09FC0F8
:101950007F00000000000000000101030206040DEA
:10196000091B1317101317131B090D04060203019B
:1019700001000000000000000000C0603098C8684E
:1019800068686868686868686868686868686868D7
:10199000C8983060C00000000000000000FF00FF99
:1019A000FF00008CE6F2F83C9CDCDC3CF8F8F00030
:1019B000E206FC00FFFF00FF000000000000000046
:1019C000FF00FFFF00007FCF9F3F78797372727333
:1019D00031389CC7E07F00FFFF00FF0000000000DF
:1019E000000000FF00CCE1331696D65656565656E8
:1019F00056D6D6D6161696169633E1CC00FF0000C2
:101A0000000000000000070C191316141517161417
:101A10001414151515141616171514171613190C7A
:101A20000700000000000000000080C0602020A02F
:101A30002020A0A0A0A0A0A0A0A0A0A0A0A0A02026
:101A400060C00000000000000080E0388EE3381E17
:101A500047CE9C38E38300000070C1891933020629
:101A60000001071C71C71C70C000007EC3187E8374
:101A700000FE862E3C0187FFE37E18C0662C39B934
:101A8000BBBABA383838383CFFFF2481FF00000168
:101A9000071C71C61C71E3E3731FC7F11C07397C77
:101AA0007E66464C4861319FFE3C8FE3380E030052
:101AB00000000000000001030604040404050505FD
:101AC00005050505050505050505050406030000D2
:101AD0000000000000000000000000000000008086
:101AE000C06030180C84E4E4CC1870C080000000A2
:101AF0000000000000000000000080C060380C669C
:101B0000725B19F87207E03C87D15C59C3CE9C31F7
:101B1000E7CE1870C080000000000000070D38E616
:101B20008F1C3973FA1BC1F88FA1B085CDD9D85C51
:101B30005F4F606C29A7AE3C1187FC0000000000DD
:101B400000000003061C3066C0851D75C50078FCCA
:101B50008E0672623E9CC06331180C0701000000C3
:101B60000000000000000000000000000103060C5F
:101B700018101011180C06030100000000000000EE
:101B8000000000000000000000000000000000C095
:101B90007018C8E8A8A888183060C080000000004D
:101BA0000000000000000000000000000000C07005
:101BB0001CC7711C87D1DCDEDCD1873C70C0197377
:101BC000268C1830E00000000000000000C0701CEF
:101BD000C7711C87E1C0983377656161733F9FC00F
:101BE000C30F3CF0C31F00FF000000000000000016
:101BF0000F18336746C696B6360666F6F69616167C
:101C0000D696F666063697C773180F0000000000D8
:101C10000000000000000000000001030206040DA7
:101C2000091B121210180C0603010000000000002E
:101C30000000000000000080C040404040404040A4
:101C4000602020A0A0A02020A0A0A0A0A02060C074
:101C500000000000000000000000FF00FEFE83B94D
:101C6000A124369FCF6630198CA6B3B93D7D01FF04
:101C7000FF00FF00000000000000000000FF00C7A0
:101C800007D3993C366369CCC08C993333313F9F7D
:101C9000C000FFFF00FF0000000000000000000087
:101CA0007FC09F0003011C06163626243D9983B38E
:101CB0009686CC4D585F4F603F000000000000004A
:101CC0000000000000010302020202030101010101
:101CD0000100000000000000000000000000000003
:101CE00000000000000000008080808080808080F4
:101CF000C04040404040406020A0202020E0000044
:101D0000000000000000007FC111F9CD948602326E
:101D10003A92C26A2AB399CD6773D98D0CFE00003E
:101D2000813FE000000000000000003FE00EFC1DCD
:101D3000C97B3363C99C36E3811C36323B9981C32E
:101D4000FF00F03FF8037EC0000000000000003FED
:101D5000E00F1833B29BC8ACA75658494B4B5B53A6
:101D60005353716040470C198FE03F0000000000A2
:101D70000000000302020202020202020203010149
:101D80000101010101010101010101010000000047
:101D9000000000000000E0202020A0206040404023
:101DA000404040C0808080808080808000000000B3
:101DB00000000000000000E03F810000FE0C8DD913
:101DC0007367CD99B32A6AC2923A32028694CDF9EA
:101DD00011C17F0000000000C07E03F83FF000FF4B
:101DE000C381993B32361C81E3369CC963337BC97E
:101DF0001DFC0EE03F0000000000003FE08F190CCA
:101E0000474060715353535B4B4B495856A7ACC87E
:101E10009BB233180FE03F000000000000000000FC
:101E2000010101010101010101010101010103029F
:101E3000020202020202020203000000000000008F
:101E400000000080C0404040404040404040404092
:101E500040406020A0A0A0A0A0202020E000000022
:101E60000000000000FE0378CC18F10183C7E5E50F
:101E7000656D6969C98D35F29A096C26E60CF8031F
:101E8000FE00000000000000013FE00FFE0700FF21
:101E900061C0CC6E26B69CC063369CC963666FC9B0
:101EA000DC9FB803FE0000000000000000037EC0BD
:101EB00000003F98584D6773594C662AABA1A4AEF9
:101EC000A6A0B094D94F44417F000000000000005C
:101ED00000000302020202020301010101010101EB
:101EE00000000000000000000000000000000000F2
:101EF000000000000080C0603090D050D8882828B2
:101F000028085850D0903060C080000000000000C9
:101F1000000000F0188C46C319FC3881F376149445
:101F2000D5D5D5D5D7951476F3813CE4410366CC5D
:101F300018F000000000FF004F189C86903C7FEDD9
:101F4000E08F9FD9D91D4D613F9FC0EDFF7C3006CA
:101F500037244100FF00000000071C71C7811C3EB0
:101F60007ECEAC391387EE1CD81F1E4FC7838180ED
:101F7000480C0480C060380F000000000000000022
:101F800001030206040D09191114161310131A087F
:101F90000C04060203010100000000000000000024
:101FA0000000008080C0406020B090D0D010D0D021
:101FB000505010B0A0206040C08000000000000021
:101FC000000080E0388EE3F8CE622398CDE07039CF
:101FD0009CCCDDD9CBDA923634E7ECE80963C60C49
:101FE000F800000000FF00FCCD6D3D70C20F3BF318
:101FF000E2F89B813C7E66607F3F9F80FFFF07F099
:102000001C8100FF00000000031E3067CC983C617B
:10201000CFFC7003E7272726339312139B89C969E6
:10202000010081C363380F000000000000000000C1
:102030000103060C0908080B080808080909090922
:10204000080C04060301000000000000000000006E
:102050000000008080C0406020B09010D0D0505070
:10206000D0D090B0A02060C0800000000000000030
:1020700000C0701CC7511D4466229BCFE773F81344
:102080003366E7CDC898903537666C7933260C18DF
:10209000F0000000FF007B1B72C01CFEB703F9FCC0
:1020A00086B2B89B9BF9F107B7FF0F00F01F012123
:1020B000E10100FF000000010F3863C88B1E7007AC
:1020C000BEB8393B3BBB9BDB59585EDF81000F013B
:1020D000088CC761301C07000000000000000001F0
:1020E00003060404050505040404040404050505A9
:1020F00004060203010000000000000000000000D0
:102100000000C060301050D0D0D0D0D0D0D0D0504F
:10211000505050103060C0800000000000000000EF
:1021200080E0388EE3793C9FCEE001F9F12585CC43
:10213000CEDE9EB7276D61FF78C001E38E38E08068
:102140000078CE03003079CC86D37100FF00EFCF4A
:102150009F31353D99C3EF7F7C3C3C9811C061278E
:102160002E80E33E0001030E1870C0903266CF0F40
:10217000001F2D253511D9490C24B68213190100F1
:10218000CF63380E030000000000000000000103D0
:10219000060C0808080808080808080808080808BD
:1021A000080C070100000000000000000000000013
:1021B000008080C040602030101888C8C898103057
:1021C000206040C08080000000000000000000FC93
:1021D00006E2CB991D9C0EA6B3399C9ED7D5D4D0D0
:1021E00099BF9E84B8B0240C1D99C36206FC000000
:1021F0000000FF00FF7F07F01F0EB8E39F3FBFB155
:10220000353D3D99C37F1FC7711C8630077CCE00CA
:10221000FF000000003F60C7808F1910169EACA31E
:102220002E79671F791D45701C0731180319088323
:1022300080C7603F000000000000000001030206AC
:10224000040C09191312161410101018080C0406A7
:1022500002030100000000000000000000000080F8
:10226000C0602020A0A0A0A0A0A0A0A0A0A0A0A08E
:10227000A0A0202060C00000000000000000C0708E
:102280001C86E300C03C6672B286E44565ADB99B2E
:10229000DBCB6B01E0CE9F3C71C71C70C00000001F
:1022A000FF01180E0300D697BA3B6D0D7EC6803F26
:1022B0007F733B83FFFF3C80FFC39F86CC78300158
:1022C000C77C0001071C70C08000042D690392B612
:1022D000240D495B13B7A78F8F001CCDE57301C098
:1022E000701C07010000000000000003060C080835
:1022F0000A0A0A0A0B09090B0B0A08090B0A080843
:102300000C07010000000000000000000000008039
:10231000C060A030D010D888A8A8A888C81890504D
:1023200030A060C0800000000000000000E0388C99
:10233000963B69CA090D06C3F0381888CC4D6D4C20
:10234000C88F9C9811131291F316CC38E00000FF4F
:10235000814A3313983C27206040C78F107067CFA5
:102360009EBF9EDCCDE1731F00C0733E28212281F9
:10237000FF0000071C3267D3B373CAFE7800018FD9
:10238000F8C07088CC64743474E46C087F90C066C4
:10239000331C070000000000000000010306050CCC
:1023A000080B191017101316141B0B0B0D04060342
:1023B000010000000000000000000000000080C0DC
:1023C00060A03050505828088808E8081850D0B04D
:1023D0002060C0800000000000000000E0384C9643
:1023E0009B8DC0E07F0101E3F23391913363E6C43A
:1023F0000404F41CC6F47523E6CC38E00000FF802A
:102400003882FE0C001EFFC0841F31343E3F1FCFB8
:1024100064711F808087CC515377ECA92D2681FFF2
:102420000000071C326ADAA60CF881C1632323235B
:1024300063C1C0780E83E1F8081CEC6CBCD869312C
:102440001C070000000000000000010306050C0846
:102450000B1B17101413121418090B0D040603019B
:102460000000000000000000000000000080C060CC
:1024700020B0D0D0D82868C808E80898D01030A07C
:1024800060C0800000000000000000E038CC66035F
:1024900009FE1036272E2C2E2633110E031FF18035
:1024A000001E7F53CECDCBE64C38E00000FF8144C8
:1024B00084147CCE0300F8CE87B33B79FD79F3E634
:1024C0000E08F1E3020604E43C19C8CC5281FF0077
:1024D00000071C3368CF8948C8881939F11332B610
:1024E000B23311181C0FC360B0905396DC69311CD5
:1024F000070000000000000000010306050C0A09A7
:10250000181311151515111B080B0C0506030100F6
:1025100000000000000118060F000060F002070034
:102520000040E036100206FE32628A1AFE6CC08C51
:102530009C988082C67E3262CA1AFE6CC09CBC9C8B
:10254000C0C28E1C98DADA9A3262329ADADA9AB219
:10255000A2A2B29ADADA9A32E2329A40607F4C460C
:1025600053587F36033139190141637E4C46535825
:102570007F3603393D3903437138195B5B594C464B
:102580004C595B5B594C4642464C595B5B5A5A5A14
:102590005B9A32E2329ADADA9AB2A2A2B29ADADA22
:1025A0009A3262329ADADA981C8EC2C09CBC9CC005
:1025B0006CFE1ACA62327EC68280989C8CC06CFE09
:1025C0001A8A6232FE06025B5A5A5A5B5B594C46C3
:1025D00042464C595B5B594C464C595B5B19387110
:1025E0004303393D3903367F5853464C7E634101DE
:1025F00019393103367F5853464C7F604014080A1E
:10260000001F15150A001F05051F001F1111001FCF
:10261000040A110A001F05051A001F11111F001FCF
:102620001010001F1010000A001715151D00011FC3
:1026300001001F11111F001F0505020A001F0505DB
:1026400001001F10101000111F11001F0505020AC4
:1026500010FE03017D15157D0103FE010302020238
:10266000020202030100FCFE82EAEA82FEFC000094
:10267000000101010101010000FE03017D55552902
:102680000103FE0103020202020202030100FCFE3A
:1026900082AAAAD6FEFC000000010101010101008E
:1026A000002030382C262C3830200000000000009C
:1026B0000000000000002030383C383020000000CE
:1026C00000000000000000000002060E1A321A0E80
:1026D00006020000000000000000000000000206EA
:1026E0000E1E0E06020000000000000000000000A8
:1026F0000023280000000000000080C06020B0908F
:10270000D0D8C888A8A888C8D8D090B02060C08089
:10271000000000000000000000C0780EE3F97C30EB
:1027200095D11F63098D9CFEFE9C8D09631FD19579
:1027300030FCF9E30E78C00000000000FFE00670F6
:10274000FFE0C69F3F0F06061F90F6F6901F060695
:102750000F3F9FC6E0FF7006E0FF00000000000191
:102760000F3F0CD933604AD89FB8B12303474703C2
:1027700023B1B89FD84A6033D90C3F0F0100000045
:102780000000000000000000030006000C010D0D19
:10279000010D0D010D0C00060003000000000000FB
:1027A0000000000000000000000000000000000029
:1027B0000000000000000000000000000000000019
:1027C000000000000000000000C03098C8E4465A35
:1027D0004A7BDF0D2571F5F571250DDF7B4A5AC661
:1027E000E4C89830C0000000000000FFE084317FA2
:1027F000E04EDF1F8E04849ED0F5F5D09E84048EBB
:102800001FDF6EE07F3184E0FF0000000000000366
:102810000F033A047C08EA0BDE14D5D115D5D11587
:10282000D4DE1BCA08EC047A030F0300000000008A
:102830000000000000000000000000000001010096
:102840000101000101000000000000000000000084
:102850000000000000000000000000000000000078
:102860000000000000000000000000000000000068
:102870000000000000000000000000000000000058
:102880000000000000000000000000000000000048
:1028900000000000000000000000C0C0C040C040B8
:1028A000C040C040C040C0C040C0C040C0C040C028
:1028B00040C040C040C0C0C0000000000007070783
:1028C00004070407040704070407070407070407AD
:1028D00007040704070407040707070000000000B7
:1028E00000000000000000000000000000000000E8
:1028F00000000000000000000000000000000000D8
:1029000000000000000000000000000000000000C7
:1029100000000000000000000000000000000000B7
:102920000000000000000080C020B0D048A8AC34F7
:10293000F4F6720AAAAA0A72F6F434ACA848D0B027
:1029400020C080000000000000FEC3187FE7EF6693
:102950007E7E7FFFFF0843FFFF4308FFFF7F7E7EF1
:1029600066EFE77F18C3FE0000000000030F3F0C76
:10297000ED1BF235A52C6F6F4F525656524F6F6FAD
:102980006C2535B21BED0C3F0F030000000000006A
:102990000000000000010003000300070700070714
:1029A0000007070003000300010000000000000012
:1029B00000000000000080C06020B090D0D8C8683F
:1029C000686868C8D8D090B02060C080000000005F
:1029D0000000000000C0780EE3F9FCC6DBCBE3FF8B
:1029E000FF0F24F5F5240FFFFFE3CBDBC6FCF9E373
:1029F0000E78C00000000000FFE00F7FF0F630BF4F
:102A00003F7FFFFF0F207F7F200FFFFF7F3FBF3003
:102A1000F6F07F0FE0FF0000000000010F3F0CD92F
:102A200033664DDD9CBFBF3F626A6A623FBFBF9C99
:102A3000DD4D6633D90C3F0F01000000000000009F
:102A400000000000030006000C010D0D010D0D013A
:102A50000D0C000600030000000000000000000054
:102A600000000000000000000000000080008080E6
:102A70008080808000000000000000000000000056
:102A80000000000080E030C8ECF492AAABCDFDFD60
:102A90001C42CACA421CFDFDCDABAA92F4ECC83060
:102AA000E0800000000000FFF0C61F79FB995F5F27
:102AB0001FFFFF86103F3F1086FFFF1F5F5F99FBE0
:102AC000791FC6F0FF000000000000030F033B0663
:102AD0007C0DE90BDB1BD3D415D5D413DBDB1BC971
:102AE0000DEC067B030F0300000000000000000057
:102AF00000000000000000000001010001010001D1
:102B000001000000000000000000000000000000C4
:102B100000000000000000000000000000000000B5
:102B200000000000000000000000000000000000A5
:102B30000000000000000000000000000000000095
:102B40000000000000000000000000000000000085
:102B5000000000000000C0C0C040C040C040C040F5
:102B6000C040C0C040C0C040C0C040C040C040C065
:102B700040C0C0C0000000000007070704070407AA
:102B800004070407040707040707040707040704EA
:102B9000070407040707070000000000000000000A
:102BA0000000000000000000000000000000000025
:102BB0000000000000000000000000000000000015
:102BC0000000000000000000000000000000000005
:102BD00000000000000000000000000000000000F5
:102BE00000000080E080B8407C20AEA0F65057176F
:102BF0005057175057F7B0A6206E40BC80E08000B9
:102C00000000000000FE0F4319FC0EE4F6F0E34064
:102C100042F3175F5F17F34240E3F0F6EC0EFC1946
:102C2000430FFE000000000001061833274EC4B514
:102C3000A5BCF660481C5F5F1C4860F6BCA5B5C625
:102C40004E273318060100000000000000000000BD
:102C50000000000001010101010101010101010168
:102C600000000000000000000000000408060D0F36
:102C700006D5F08D14A1C881CFD9F1AF2000F0F8AE
:102C80009C8E8783878E9CF8F00000FEFF03030371
:102C90000303070EFCF80000FEFF03030303030712
:102CA0000EFCF80000FFFF00000000000000FFFF26
:102CB0000000FEFF8383838383C7EE7C380000F827
:102CC000FC0E07030303070EFCF800003F7FE0C083
:102CD0008080C0E07F3FFFFF01010101010101FF92
:102CE000FF0000FFFF0C0C0C0C1C3E77E3C1000042
:102CF0007FFFC0C0C0C0C0E0703F1F00001F3F701A
:102D0000E0C0C0C0E0703F1F00007FFFC1C1C1C173
:102D1000C1E3773E1C00001F3F70E0C0C0C0E07000
:102D20003F1F000000000001FFFF01000000FC1C2D
:102D3000C41DF31CDC1CA71D731EF221241FAE2032
:102D4000080B000202020000090400000102020058
:102D500000052400100105240101010424020605D8
:102D60002406000107058103100040090401000248
:102D70000A00000007050202400000070583024028
:102D800000000403090412010002EF020140412384
:102D9000368000010102030141726475696E6F2083
:102DA0004C4C430041726475696E6F204C656F6EC8
:102DB0006172646F0000842711241FBECFEFDAE038
:102DC000DEBFCDBF11E0A0E0B1E0ECE8F7E502C066
:102DD00005900D92AC33B107D9F726E0ACE3B1E032
:102DE00001C01D92AA31B207E1F716E1CCEDD6E1A0
:102DF00004C02197FE010E94BE2BCB3DD107C9F72D
:102E00000E94A9270C94C42B0C940000809180018F
:102E10000895E5EBF1E0A0E0B8E000800EBC811180
:102E2000012C1197A0FDFDCF0192B9F70DB40895C3
:102E3000FC018091B401882311F13FB7F89482E03E
:102E40008093E9002091F200822F90E01816190675
:102E500014F481E090E0882339F0289844E6409308
:102E6000B3014091F1004083222339F02091F20018
:102E7000211103C02BE62093E8003FBF08958FEF98
:102E80009FEF08952FB7F89483E08093E900909125
:102E9000E800892F807295FF04C09091F20080E4D1
:102EA000891B2FBF08958091AB0181110DC082E075
:102EB0008093A70184E08093A8011092AA01109248
:102EC000A90181E08093AB0187EA91E00895CF9357
:102ED000DF931F92CDB7DEB76983DC01ED91FC91E2
:102EE0000280F381E02D41E050E0BE016F5F7F4F33
:102EF00009950F90DF91CF91089583E08093E900C9
:102F00008091F200882319F08AE38093E800089505
:102F10000E94421790E00895CF93DF931F92CDB7A0
:102F2000DEB7FC018485958597FD08C02FEF3FEF44
:102F3000358724870F90DF91CF910895CE010196B8
:102F40000E941817019719F4898190E0F3CF8FEF51
:102F50009FEFF0CF0F931F93CF93DF931F92CDB7C7
:102F6000DEB78C01FC018485958597FF0BC0CE01EF
:102F700001960E941817019771F4898190E0F80179
:102F800095878487F801848595850F90DF91CF918F
:102F90001F910F9108958FEF9FEFF1CFFC01848572
:102FA000958597FD0BC09FB7F89482E08093E90068
:102FB0008091F2009FBF90E0019608959FB7F8942A
:102FC00082E08093E9008091F2009FBF90E0089535
:102FD0004091A1015091A20120919F013091A00147
:102FE00042175307B4F49091E8009570E1F3909183
:102FF000E80092FD19C08093F1008091A1019091A9
:10300000A20101968F739927892B19F48EEF809373
:10301000E8008091A1019091A20101969093A201F4
:103020008093A10181E0089580E00895DF92EF92FE
:10303000FF920F931F93CF93DF93D82E8A01EB015A
:103040007B01E40EF51ECE15DF0559F0D7FE12C048
:10305000FE0184910E94E81721968111F4CF0FEFB1
:103060001FEFC801DF91CF911F910F91FF90EF905B
:10307000DF9008958881EECF0F931F93CF93DF9356
:103080001F92CDB7DEB782E0898342E450E060E46E
:103090007DE280E80E9416180E945317DC01129608
:1030A0000D911C910115110589F0D801ED91FC914C
:1030B0000280F381E02DBE016F5F7F4FC80109954B
:1030C00097FD04C0F80100851185ECCF89810F9030
:1030D000DF91CF911F910F910895615030F02091B1
:1030E000F100FC0120830196F8CF289884E68093B4
:1030F000B30108953FB7F89480919B0190919C0192
:10310000A0919D01B0919E0126B5A89B05C02F3FBF
:1031100019F00196A11DB11D3FBFBA2FA92F982FFD
:103120008827BC01CD01620F711D811D911D42E0F8
:10313000660F771F881F991F4A95D1F708958F92C0
:103140009F92AF92BF92CF92DF92EF92FF926B016C
:103150007C010E947A184B015C01C114D104E10486
:10316000F104B9F00E947A18681979098A099B0953
:10317000683E73408105910580F321E0C21AD108B1
:10318000E108F10888EE880E83E0981EA11CB11CAE
:10319000E4CFFF90EF90DF90CF90BF90AF909F90E3
:1031A0008F9008958F929F92AF92BF92CF92DF92AD
:1031B000EF92FF920F931F93CF93DF936C017B01EC
:1031C0008A0180910E01882309F45CC08091B401CA
:1031D000882309F457C08091A60180FF05C0809123
:1031E000E00082608093E000E801B12C8AEFA82E15
:1031F00093E0892E2AE3922E209711F4BB20D9F177
:103200000E94421781110AC0AA94AA20D9F161E054
:1032100070E080E090E00E949F18EECF8C171D06B2
:1032200011F00CF08C2F9FB7F8948092E900209158
:10323000E80025FD02C09FBFDFCF282F30E0C21B72
:10324000D30BF701815020F041914093F100FACF68
:10325000E20EF31EBB2021F09092E800B12CEBCFE0
:103260008091E80085FDE7CF9092E800BB24B394FD
:10327000209709F3F3CF5D9884E68093A50110169B
:1032800011063CF081E090E0F6019383828310E028
:1032900000E0C801DF91CF911F910F91FF90EF9057
:1032A000DF90CF90BF90AF909F908F900895209126
:1032B000B905E091B705F091B805CF01029690935A
:1032C000B8058093B705222319F08591949108954C
:1032D000808191810895CF92DF92EF92FF92CF93F8
:1032E000DF930E945719811520E8920791F480918D
:1032F00071008D7F809371001092910046984798DD
:1033000010928301DF91CF91FF90EF90DF90CF90EB
:10331000089521E020938301813020E8920751F441
:103320008091B5059091B6059093B8058093B70547
:103330000E94571997FD05C020918201222309F4AC
:1033400054C020918101211150C021E020938401BB
:10335000EC01DF77209709F04BC081E08093850175
:1033600046983FE9C32E3FE0D32EE12CF12CCAEF63
:10337000D0E0E0911806F09119060995811103C07B
:1033800081E08093850180918401882329F08091D8
:103390008501882309F43FC047980E945719009778
:1033A000F1F19C01DE010E949B2BDC01CB0129E0A5
:1033B000B595A795979587952A95D1F71092900086
:1033C0002AE020939100D0929900C09298008093B7
:1033D000860190938701A0938801B0938901809121
:1033E00071008260809371008DCF10928401B0CF04
:1033F0009E0150E040E060E472E48FE090E00E94C3
:10340000472B69017A0181E0C81AD108E108F10867
:1034100010928501AECF4699BFCF479ABECF8FEFAE
:103420009FEFDC01CBCF9C01E1E7F0E090819D7F35
:1034300090831092B905EAE0F6E0F093B805E093C6
:10344000B705F093B605E093B5053183208384E199
:1034500090E09383828380E090E8958384830C944A
:103460006B194F925F926F927F928F929F92AF9261
:10347000BF92CF92DF92EF92FF920F931F93CF9361
:10348000DF934C015901FC2DC02FD0E0CE01880DF7
:10349000991D181619060CF06CC020E882169104CC
:1034A0000CF067C09B012E0D311D121613060CF097
:1034B00060C0603471050CF05CC04115510509F421
:1034C00058C0E62FE770FE2EDB0177FD179633E03C
:1034D000B595A7953A95E1F73A2F77FF04C0FF20FD
:1034E00011F03FEF3A0F662777276819790997FCA3
:1034F00002C070E060E0803891050CF44BC090E8A9
:103500009819961BA32F032E000CBB0B1A2F109596
:103510003F3F0CF010E021E08E2D877009F420E091
:10352000E694E694E694E20EAE0DB11D19971CF0F8
:1035300028E0E22EE31AE11A310F20E83203D0012D
:103540001124A80DB91DA60FB71F019F600D711D95
:103550001124460F571F0F2D0F2C000C110BF330A9
:1035600009F41CC1C8F4F13009F4D0C0F23009F4F8
:103570007CC0DF91CF911F910F91FF90EF90DF9072
:10358000CF90BF90AF909F908F907F906F905F9003
:103590004F900895902FB5CFFA3FB1F1232F2E0D04
:1035A000FB3F39F7321729F3BD016B547E4FD12C05
:1035B000C12CC91608F0A4C0FA01EC0DFD1DE49160
:1035C000F0E04F01002E02C0880C991C0A94E2F72B
:1035D00037FD06C0FB018081E82CE0948E218083BA
:1035E000FF2061F0373054F45B01F0E8AF0EB11CFE
:1035F000E92CE094F50180818E218083FFEFCF1AC2
:10360000DF0A6F5F7F4FD5CF232F2E0D321709F4BE
:10361000B0CFBD016B547E4FD12CC12CC91608F020
:1036200069C0FA01EC0DFD1DE491F0E04F01002EA0
:1036300002C0880C991C0A94E2F737FD04C0FB0114
:10364000808188298083FF2051F0373044F45B016A
:10365000F0E8AF0EB11CF501808189298083FFEF6E
:10366000CF1ADF0A6F5F7F4FD9CF6FEF70E00F2C5B
:1036700002C0660F771F0A94E2F760957095772E67
:10368000232F2E0D321709F474CFFD01EB54FE4F9A
:103690006F01B12CA12CA91638F5FA01EA0DFB1D1A
:1036A000E491F0E02F01002E02C0440C551C0A9456
:1036B000E2F737FD05C0F6018081862384298083E7
:1036C000FF2059F037304CF44601F0E88F0E911C82
:1036D000F4018081872185298083FFEFAF1ABF0A1B
:1036E0008FEFC81AD80AD7CF3F5F4C0F5D1FA05885
:1036F000BF4FC8CF3F5F4C0F5D1FA058BF4F86CF55
:103700003F5F4C0F5D1FA058BF4F4CCF6A0D7B1D14
:10371000232F2E0D321709F42CCFFD01EB54FE4F51
:103720006F01B12CA12CA91688F5FB01EA0DFB1D38
:103730008490912C002E02C0880C991C0A94E2F708
:1037400080949094FA01EA0DFB1D6490712C002E78
:1037500002C0660C771C0A94E2F737FD05C0F6013B
:103760008081882186298083FF2049F037303CF40E
:10377000F601E058FF4F8081892187298083FFEF80
:10378000AF1ABF0A8FEFC81AD80ACDCF3F5F4C0FD0
:103790005D1F6C0F7D1FA058BF4FBCCFC92ED12C11
:1037A000FA01E60FF71FAB54BE4F00E810E00C190A
:1037B0001D09CC19DD09BE01660F771F41E050E0FD
:1037C0006A010F2C01C0CC0C0A94EAF7592F2E2D58
:1037D000792ECF93DF93ED01EF96EF9622968590A9
:1037E000A590FF2059F08C9C4001AC9C50013730D3
:1037F0002CF4E880B094EB20E928E99233233AF0E6
:10380000EC90A094EA20E828ED920C94081C119604
:103810005A9529F72A9551F0572D33951124E60F23
:10382000F11DA00FB11DC00FD11DD9CFDF91CF91D8
:1038300011249FCECF92EF920F93FA01049131960B
:10384000E4904E5F5F4F2223F9F0A1E0B0E03E2DFF
:10385000377011F4B0E0A0E0EE2DE695E695E69520
:10386000EA0FFB2FF11D0E9FD0010F9FB00D112409
:1038700030E0220F331FA29FF001A39FF00DB29FF3
:10388000F00D11244E0F5F1F23E0C22E30E020E028
:103890000E94311A0F91EF90CF900895CF92EF923E
:1038A0000F93CF93DF93DC01FA0104913196E490FA
:1038B0004E5F5F4F2223D1F0C1E0D0E09E2D977084
:1038C00011F4D0E0C0E0EE2DE695E695E695EC0F1C
:1038D000FD2FF11D0E9FE0010F9FD00D11242C9F95
:1038E000C0012D9F900D1124480F591F8AEFC82E3B
:1038F00030E020E0CD010E94311ADF91CF910F918D
:10390000EF90CF9008952D9A0895BC0190E080E04B
:103910000C949F188FB18095807F669B88601C9B5C
:1039200084600895109280013E983F9808953E9AD1
:103930003F9A81E080938001089590918E019823B1
:1039400029F490918F01982381E009F480E0089593
:1039500080914A0190E0E0E5F1E042E050E0481B50
:10396000590B66E2649F9001659F300D1124285F1A
:103970003F4F40E067E070E04483318320837383EE
:10398000628315824F5F36962A5D3F4F4830A1F71C
:10399000019726E0289FF001299FF00D1124E05B9C
:1039A000FE4F81E090E09383828310924801109251
:1039B0004B0110924C01089584E080934A010E94CB
:1039C000A81C81E080934601109247018093450135
:1039D000109244011092430182E080934D0186E0F1
:1039E00080939501089584E00E949D1C882319F01E
:1039F00081E080939501089520E040EB5DE064E074
:103A000070E082E290E00E944E1C80913E018F5F48
:103A100080933E01853BC8F021E0209395011092F0
:103A20004001109242019091010189E1989F902DEF
:103A30001124925390933F0180918001822795E158
:103A4000899F802D11248093410108952091420186
:103A500090913D0130914001332311F1222379F0FF
:103A6000891788F09F5F90933D0190913F019F5F80
:103A7000893111F1909141019F5F853171F09091F1
:103A80003D019817E0F010923D0110924201089517
:103A90008531A9F790914101915090934101EFCF69
:103AA000222369F3891778F39F5F90933D01893151
:103AB00079F790913F01915090933F01E0CF0895A5
:103AC000CF9380918A0190918B0166E070E00E9413
:103AD000AA2B892B29F4809100018F5F809300012C
:103AE00080910001803310F010920001809100015C
:103AF000883050F580933C0120E04EEA5CE070E0B5
:103B000060E090E080E00E944E1CC0913C012C2FB0
:103B10004CEA50E06CE070E090E080E00E944E1CC7
:103B200021E04EEA5CE070E060E080E490E00E941A
:103B30004E1C28E02C0F4CEA50E06CE070E080E472
:103B400090E0CF910C944E1C10923C01D5CF0E9476
:103B5000601D20E046E55FE064E270E090E080E018
:103B60000E944E1C21E046E55FE064E270E080E4E4
:103B700090E00E944E1C84E00E949D1C882319F056
:103B800081E0809395010895AF92BF92CF92DF922A
:103B9000EF92FF920F931F93CF93DF930E94601DCC
:103BA00020E040E554E164E270E090E080E00E94B3
:103BB0004E1C21E040E554E164E270E080E490E0D6
:103BC0000E944E1C89E10E94261D10914201111194
:103BD00009C020E04CE154E16FE270E084E390E042
:103BE0000E944E1CF12CE12CC2E0D0E084E3A82E10
:103BF000B12C0C2F2C2F2250C0900101D12CCC15B0
:103C0000DD05B1F5111134C025E0200F80913F0191
:103C1000A501481B5109CA0140E951E160E370E088
:103C20008E0D9F1D0E941A1C219659E1E50EF11C74
:103C3000C630D105F1F620E048E551E168E370E0D7
:103C400083E390E00E944E1C80E20E949D1C88232A
:103C500019F1111121C0809101018330E8F091E048
:103C6000909342011092400181508093010124C041
:103C700080913F01A501481B5109CA0140E951E16A
:103C800060E370E08E0D9F1D0E941A1CCC15DD05AF
:103C900059F61111C9CFB8CF80E40E949D1C88232A
:103CA00031F0111104C080910101853080F084E071
:103CB0000E949D1C811112C0DF91CF911F910F9125
:103CC000FF90EF90DF90CF90BF90AF90089591E07C
:103CD00090934201909340018F5FC7CF8091010183
:103CE00080939501E9CFDF92EF92FF920F931F939C
:103CF000CF93DF930E94601D20E040E554E164E231
:103D000070E090E080E00E944E1C21E040E554E12C
:103D100064E270E080E490E00E944E1C85E10E9425
:103D2000261DD0904201D11009C021E04CE154E1A0
:103D30006FE270E086E390E00E944E1C009141012A
:103D400010E026E040E951E160E370E0C8010C9624
:103D50000E941A1C81E090E07C01ED18F108D091DE
:103D600080018D1B9109E89E802D1124C7E08C9F56
:103D7000202D11242C5F40E951E160E370E0C8017F
:103D800081960E941A1CDC9F202D11242E9D202D2F
:103D900011242B5F40E951E160E370E0C801C69651
:103DA0000E941A1C21E048E551E168E370E083E3DA
:103DB00090E00E944E1C80E20E949D1C882391F09E
:103DC000D11010C0DD2371F081E080934201809317
:103DD0004001DF91CF911F910F91FF90EF90DF9005
:103DE0000C94921C80E40E949D1C882321F0D11029
:103DF00002C0DD23D9F084E00E949D1C882371F06D
:103E000082E090E00E94312BD81729F06D2F82E0DC
:103E100090E00E94392B81E080939501DF91CF9152
:103E20001F910F91FF90EF90DF90089581E08093B4
:103E3000420110924001DF91CF911F910F91FF90AD
:103E4000EF90DF900C94971CCF92DF92EF92FF924D
:103E50000F931F93CF93DF931092490110924C015F
:103E600080918A0190918B0187709927892B49F461
:103E7000809148018F5F8093480180E793E00E9422
:103E8000131A80918A0190918B0163E070E00E9487
:103E9000AA2B892B49F480914B018F5F80934B01B2
:103EA00080E793E00E94131A80914801833010F05C
:103EB0001092480180914B01883010F010924B0114
:103EC00080915401C0E5D1E0882309F47EC015E05B
:103ED000E0914A01F0E0EE5EFE4FC080D12CF12C63
:103EE000E12C80915401873008F061C082E0C8164F
:103EF000D104E104F1040CF455C00E94A42AA701E6
:103F0000960121503109410951090E94472BDC01DA
:103F1000CB010196A11DB11D8D8311502696111163
:103F2000D7CF80915401282F220F280F809148016C
:103F30008350280F609152017091530148EB56E174
:103F400080915001909151010E944E1C88E00E9486
:103F50009D1C882361F081E08093910186E080932D
:103F600095010E94A81C8CE291E00E94131A84E043
:103F70000E949D1C882309F456C081E08093920121
:103F800010924E0110924F0130914D0180914901E4
:103F9000E0E5F1E090E03917E9F12581820F9F5FBC
:103FA0003696F9CF81E090E0A0E0B0E0B5CFC11443
:103FB000D104E104F10439F00E94A42AA70196017A
:103FC0000E94472B6B01CD82A8CF0EE611E0E09155
:103FD0004A01F0E0EE5EFE4FC080D12CF12CE12CC6
:103FE000C114D104E104F10439F00E94A42AA7010C
:103FF00096010E94472B6B01CD8226960C171D0758
:1040000031F7609152017091530120914B0141EFC2
:1040100056E296CF8093490188E0809395018CE227
:1040200091E00E94131A209191014FE456E265E35A
:1040300070E081E090E00E944E1C209192012E5F82
:104040004FE456E265E370E081E690E00E944E1C8A
:1040500020E04DEF55E268E370E08CE090E00E94D4
:104060004E1C22E04DEF55E268E370E08CE690E0F4
:10407000DF91CF911F910F91FF90EF90DF90CF9044
:104080000C944E1C8F929F92AF92BF92CF92DF9270
:10409000EF92FF920F931F93CF93DF93CDB7DEB7CD
:1040A0002A970FB6F894DEBF0FBECDBFE82EA62E1E
:1040B000CA014AE09E012F5F3F4F6901B9010E948A
:1040C000FC2AF60101900020E9F731978F010C19C5
:1040D0001D09002E000C110B8E2D8450990B7C01B4
:1040E000A8014150510965E0649F9001659F300D22
:1040F0001124E21AF30A912CB12C8AE0882E892D22
:1041000090E080179107BCF48C0D9D1DFC0120816F
:1041100021337CF020532A3060F442E555E1B501AB
:10412000C701989C800D911D11240E944E1C9394F0
:10413000E6CF20E0F2CF2A960FB6F894DEBF0FBE8E
:10414000CDBFDF91CF911F910F91FF90EF90DF9046
:10415000CF90BF90AF909F908F900895EF92FF9275
:104160000F931F93CF93DF9388E00E949D1C8823B9
:1041700061F081E08093910186E0809395010E9437
:10418000A81C8CE291E00E94131A84E00E949D1CFE
:10419000882351F081E08093920187E0809395011C
:1041A0008CE291E00E94131A80915401882309F453
:1041B000A4C0D0E0C0E020E045E155E268E170E055
:1041C000CE010E941A1C2196C038D105A1F7C8E380
:1041D000D0E021E045E155E268E170E0CE010E94C7
:1041E0001A1C2196C834D105A1F7E0914E01F0E0E8
:1041F000E55EFE4FC081D0E020E043E255E26CE195
:1042000070E082E890E08C1B9D0B0E944E1C21E028
:1042100043E255E26CE170E0CE01C8970E944E1C6B
:1042200080914F01882339F04091490150E06FE1BE
:1042300080E40E94422080918A0180FD05C0809127
:104240004E018F5F80934E0180914E01843021F4A6
:1042500080E793E00E94131A80914E01863021F48A
:1042600088EE93E00E94131A80914E01883030F05E
:1042700087E080934E0181E080934F0180914D0152
:10428000823008F47AC0D0E086E0F82E03EF1AE11D
:10429000C0914D01DC17F0F02C2F33EF3203700189
:1042A000112488E5E80EF11C10E0C150DD0B0AE195
:1042B0001C171D060CF061C020E04BE65CE26CE0D0
:1042C00070E0C701109F800D911D11240E944E1CAB
:1042D0001F5FEECFFD9EF0011124E05BFE4F458194
:1042E00050E0C09F802D1124835B68E0D19F800D3A
:1042F00011240E944220DF5FCBCF20914C01E0913E
:104300008A01F0918B0163E0620F70E0CF010E949F
:10431000AA2B892B39F4233028F480914B018F5F2D
:1043200080934B01CF0166E070E00E94AA2B892B9D
:1043300069F4233058F080914B019091550191110F
:104340004EC0843019F08F5F80934B0180914B01F8
:10435000883028F02F5F20934C0110924B01609120
:1043600052017091530120914B0141EF56E280912F
:104370005001909151010E944E1C209191014FE4F7
:1043800056E265E370E081E090E00E944E1C2091CF
:1043900092012E5F4FE456E265E370E081E690E023
:1043A0000E944E1C20E04DEF55E268E370E08CE087
:1043B00090E00E944E1C80914A0121E0823008F476
:1043C00023E04DEF55E268E370E08CE690E0DF918A
:1043D000CF911F910F91FF90EF900C944E1C811183
:1043E000B2CFB4CFCF92DF92EF92FF920F931F9391
:1043F000CF93DF9310914A018EEF810F863018F032
:1044000081E080934D01609152017091530120E051
:1044100041EF56E280915001909151010E944E1C53
:10442000C0E5D1E07E01F7018285282F220F280FF9
:10443000809148018350280F6085718548EB56E1D3
:10444000868197810E944E1CF6E0EF0EF11C8AE7F0
:10445000E81681E0F80639F780E40E949D1C882365
:10446000D9F180914701811137C01830A8F581E05A
:104470008093470180934601123018F482E08093C4
:104480004D011F5F10934A0187E090E09093530124
:1044900080935201909359018093580190935F014A
:1044A00080935E01909365018093640190936B010A
:1044B00080936A01909371018093700190937701CA
:1044C0008093760190937D0180937C011092450149
:1044D0008CE291E00E94131A80E20E949D1C8823C6
:1044E000E9F180914701811139C080914A01823000
:1044F000A8F191E09093470110924601883018F09E
:1045000092E090934D01815080934A0187E090E0C2
:1045100090935301809352019093590180935801D5
:1045200090935F0180935E01909365018093640195
:1045300090936B0180936A01909371018093700155
:10454000909377018093760190937D0180937C0115
:10455000109245018CE291E00E94131A80E80E94BB
:104560009D1C882399F080914D01853078F49091BD
:104570004A019250963050F491E0909393018F5FEE
:1045800080934D0188E592E00E94131A80E10E9419
:104590009D1C882399F080914D01823078F0909194
:1045A0004A019250963050F491E0909394018150DA
:1045B00080934D0188E592E00E94131A84E00E94E6
:1045C0009D1C882309F181E08093920100E511E0B0
:1045D0008EE2C82ED12CEE24E394F12C80914A0176
:1045E0008150F8018483D182C082F382E2828CE21E
:1045F00091E00E94131A0A5F1F4FF1E00E361F0769
:1046000069F787E08093950188E00E949D1C8823CC
:1046100049F081E080939101809395018CE291E0D3
:104620000E94131A20914701809143019091440107
:1046300030914601332309F4C8C0222399F0853212
:10464000910584F40296909344018093430120E8FD
:1046500031E08881998102979983888326962C1767
:104660003D07B9F780914301909144018232910551
:1046700009F07DC080914A018150990B26E0289F66
:10468000F001299FF00D1124E05BFE4F86E090E0E1
:104690009383828320E046E856E160E370E084E3A0
:1046A00090E00E944E1C40914D0150E062E38CE38B
:1046B0000E944220209191014FE456E265E370E0B0
:1046C00081E090E00E944E1C209192012E5F4FE409
:1046D00056E265E370E081E690E00E944E1CC091D6
:1046E0004A018EEF8C0F8630B0F4209193012C5F3D
:1046F0004FE456E260E370E082E490E00E944E1CDA
:10470000209194012A5F4FE456E267E370E082E46F
:1047100090E00E944E1C20E04DEF55E268E370E00F
:104720008CE090E00E944E1C21E0C23008F423E0AF
:104730004DEF55E268E370E08CE690E00E944E1C7D
:1047400080914501882309F457C02FEF2C0F44EFC7
:1047500055E168E270E087E390E0DF91CF911F912F
:104760000F91FF90EF90DF90CF900C944E1C84320D
:10477000910579F480914A018150990B26E0289F98
:10478000F001299FF00D1124E05BFE4F84E090E0E2
:104790007FCF86970CF47ECF109244011092430194
:1047A0001092470180914A018150990B26E0289F81
:1047B000F001299FF00D1124E05BFE4F81E090E0B5
:1047C000938382838093450165CF222309F44ACFE6
:1047D000853291050CF046CF029690934401809368
:1047E000430188819981029699838883269681E086
:1047F000C038D807B1F736CFDF91CF911F910F9115
:10480000FF90EF90DF90CF9008951F920F920FB618
:104810000F9211248F939F938091E1009091E1007A
:10482000937F9093E10083FF0FC01092E90091E025
:104830009093EB001092EC0092E39093ED001092B5
:10484000B40198E09093F00082FF22C093E090932F
:10485000E9009091F200992319F09AE39093E8000F
:104860009091A501992341F09091A50191509093C9
:10487000A501911101C05D9A9091B301992341F076
:104880009091B30191509093B301911101C0289A76
:1048900084FF18C08091E2008E7E81608093E200E8
:1048A0008091E1008F7E8093E1008091A6018E7E51
:1048B00080618093A6019F918F910F900FBE0F9002
:1048C0001F90189580FFF7CF8091E2008E7E806167
:1048D0008093E2008091E1008E7E8093E1008091E0
:1048E000A6018E7E8160E5CF1F920F920FB60F92C8
:1048F0001124CF92DF92EF92FF920F931F932F9389
:104900003F934F935F936F937F938F939F93AF9357
:10491000BF93EF93FF93CF93DF93CDB7DEB76C9741
:10492000DEBFCDBF1092E9008091E80083FF25C073
:1049300068E0CE0145960E946D1882EF8093E800F2
:104940008D8987FF39C09091E80090FFFCCF982FA8
:10495000907609F034C19E894F89588D2F89F88C43
:10496000911131C0803861F58091A4018093F100EC
:104970001092F1008EEF8093E8006C960FB6F894D9
:10498000DEBF0FBECDBFDF91CF91FF91EF91BF9101
:10499000AF919F918F917F916F915F914F913F91D7
:1049A0002F911F910F91FF90EF90DF90CF900F907C
:1049B0000FBE0F901F9018959EEF9093E800C7CF01
:1049C0001092F100D5CF913059F48111D3CF4130FD
:1049D000510581F68091A4018D7F8093A401CACFF7
:1049E000933049F48111C6CF4130510519F68091B9
:1049F000A4018260F2CF953041F48091E80080FFFD
:104A0000FCCF20682093E300B5CF963009F0A9C011
:104A10000B8D1C8D22E01092E9001092A2011092E1
:104A2000A101F2122EC01092A00110929F010E94CB
:104A30003C181F8299E09983FA8291E09E8390EA64
:104A400098879AEF99872091A1013091A201275F61
:104A50003F4F3C832B838D831092E9001092A2017B
:104A60001092A1011093A00100939F0149E050E032
:104A7000BE016F5F7F4F80E00E9416180E943C18B5
:104A800079CF1093A00100939F010E945317DC017E
:104A900012960D911C910115110509F451C1D8010F
:104AA000ED91FC910480F581E02DBE016B5E7F4F9E
:104AB000C8010995009709F03EC1F80100851185EC
:104AC000EACFF3E0FF120EC08F89882309F440C0BB
:104AD000823061F440E860E184EA9DE20E9451275F
:104AE000811148CF81E28093EB0047CF813029F4D8
:104AF00040E86BE088E99DE2F1CF833099F70E94AE
:104B00005317DC011296ED90FC908E010F5F1F4F42
:104B10006801E114F10479F0D701ED91FC91068070
:104B2000F781E02DB801C7010995080F111DF701A4
:104B3000E084F184EECFD8011C92F60101900020B0
:104B4000E9F73197BF016C197D0940E0C601C6CF76
:104B500062E87DE2FB01449150E080E80E94161873
:104B600009CF973009F4BECF983021F481E08093CB
:104B7000F10000CF993009F0FDCE837009F0B2CF7B
:104B8000E4E2F1E081E031E096E32191222371F04B
:104B90008093E9003093EB00DF0111972C91209373
:104BA000EC009093ED008F5F873079F78EE780936C
:104BB000EA001092EA008F898093B401DBCE8B8DDE
:104BC0009C8D1092E9001092A2011092A101909385
:104BD000A00180939F01898D811192C08E899D894A
:104BE000913A49F4813209F07DCF47E050E067E027
:104BF00071E080E0B3CF913209F074CF833269F471
:104C00008F89988DB0E0A0E0809303019093040118
:104C1000A0930501B0930601ADCE803269F4809176
:104C2000E80082FFFCCF67E087E091E00E946D180A
:104C30008BEF8093E8009ECE823209F09BCE8F8965
:104C400080930E01EEEFFFE7859194918B3F9C4D91
:104C500051F1E0E0F8E08091070190910801A09106
:104C60000901B0910A01803B9440A105B105F1F41E
:104C700080910E0180FD1AC0EE3F8AE0F80789F5A9
:104C800087E797E791838083809160008093A301F9
:104C900088E19BE00FB6F894A895809360000FBE62
:104CA0009093600067CEEEEFFAE0D5CF80819181DE
:104CB0008737974709F05ECEA8958091600088619C
:104CC000809360008091A30180936000EE3F2AE012
:104CD000F20789F08091FE0A9091FF0A9183808308
:104CE00049CE808191818737980751F29093FF0ACE
:104CF0008093FE0AC5CF1092FF0A1092FE0A3ACEA8
:104D00000E945317DC0112960D911C91011511059B
:104D100009F4E8CED801ED91FC910190F081E02DED
:104D2000BE016B5E7F4FC8010995811123CEF8014A
:104D300000851185EBCF181619060CF41BCED2CEC8
:104D4000F1E0FF12BECE66E87DE204CF1F920F9223
:104D50000FB60F9211242F933F938F939F93AF938E
:104D6000BF938091970190919801A0919901B09182
:104D70009A013091960123E0230F2D3758F50196C3
:104D8000A11DB11D209396018093970190939801E6
:104D9000A0939901B0939A0180919B0190919C01FD
:104DA000A0919D01B0919E010196A11DB11D80931E
:104DB0009B0190939C01A0939D01B0939E01BF9194
:104DC000AF919F918F913F912F910F900FBE0F90B8
:104DD0001F90189526E8230F0296A11DB11DD2CF72
:104DE0001F920F920FB60F9211242F933F934F9360
:104DF0005F936F937F938F939F93AF93BF93EF9343
:104E0000FF938091860190918701A0918801B091D4
:104E10008901892B8A2B8B2B09F440C08091850155
:104E200081110BC088B190E4892788B980918401F1
:104E3000882319F088B1805888B9809186019091B3
:104E40008701A0918801B0918901181619061A06E8
:104E50001B069CF48091860190918701A0918801A6
:104E6000B09189010197A109B109809386019093BE
:104E70008701A0938801B0938901FF91EF91BF91C1
:104E8000AF919F918F917F916F915F914F913F91E2
:104E90002F910F900FBE0F901F9018950E946B19C5
:104EA000ECCFEF92FF920F931F93CF93DF93F82EE7
:104EB000192FE62E042F81E0860F880F0E94E81735
:104EC00083E00E94E817CF2DD12FEC0EFD2EF11CB0
:104ED000CE15DF05B9F007FF13C0FE0184910E94D3
:104EE000E817182F80E00E94E8178123219681118E
:104EF000EFCFDF91CF911F910F91FF90EF90089529
:104F00008881EDCF81E0F5CFEAEBF5E013821282E4
:104F100088EE93E0A0E0B0E084839583A683B78316
:104F20008EE291E0918380838FEF9FEF9587848756
:104F300086E097E1909319068093180680E090E848
:104F4000909317068093160646983E9A47983F9A84
:104F50000895789484B5826084BD84B5816084BDF1
:104F600085B5826085BD85B5816085BD80916E0007
:104F7000816080936E001092810080918100826038
:104F80008093810080918100816080938100809175
:104F90008000816080938000809191008260809386
:104FA00091008091910081608093910080919000A8
:104FB0008160809390008091C10084608093C100E3
:104FC0008091C10082608093C1008091C1008160A6
:104FD0008093C1008091C30081608093C300809161
:104FE000C00082608093C0008091C2008160809385
:104FF000C20080917A00846080937A0080917A0068
:10500000826080937A0080917A00816080937A0038
:1050100080917A00806880937A001092B401109297
:10502000A4011092A6018091D70081608093D700DF
:1050300080EA8093D80089B5806189BD89B5826096
:1050400089BD09B400FEFDCF61E070E080E090E032
:105050000E949F188091D8008F7C80618093D80037
:105060008091E000807F8093E0008091E1008E7E5F
:105070008093E1008DE08093E200559A209A81ECC4
:1050800080937C0085B1806F85B984B1877E84B9B7
:1050900084B1876E84B95E9A5F988AB1806D8AB94F
:1050A000769A6E9881B3806F81BB899880B38D703A
:1050B00080BB80E58CBD81E08DBD85E090E00E94E5
:1050C000851C5F9A85E090E00E94851C5E985C9844
:1050D000E1E7FCE284918EBD00000DB407FEFDCF38
:1050E00031960CE2EE37F007A9F75C9A81E88093DD
:1050F00064008091650081608093650080E00E947B
:1051000009170E948A1C87FF15C05C9885EA8EBD2E
:1051100000000DB407FEFDCF5C9A2E982F982D98B5
:105120008091640080628093640081E083BF8895F1
:1051300013BEFCCF0E948A1C82FF48C02D980E949B
:105140008A1C84788438E1F40E94831C88EC90E007
:105150000E94851C2F9882E090E00E94312B8F3FA7
:1051600029F06FEF82E090E00E94392B84EF91E00C
:105170000E94851C2F9A0E948A1C84788438D9F357
:105180000E948A1C84718431E1F40E94831C88ECA3
:1051900090E00E94851C2E9882E090E00E94312BC6
:1051A000882329F060E082E090E00E94392B84EFB0
:1051B00091E00E94851C2E9A0E948A1C8471843181
:1051C000D9F388EC90E00E94851CB4CF0E94831C28
:1051D00082E090E00E94312B882309F478C00E947D
:1051E000971C81E090E00E94312B8470982E81E022
:1051F00090E00E94312B81FF10C091102E98C1EFDA
:10520000DFEF08E010E078E5872E0E948A1C86FF19
:1052100061C02E9A2F9A0E94831C82E390E00E9424
:10522000851C0E948A1C8111F8CF80E180930201C5
:10523000809164008E7F8093640080917A00806406
:1052400080937A0080917A0086FDFCCFC09178002F
:10525000D09179000E947A18AB01BC01CE01B0E078
:10526000A0E0DC01992788278C019D01040F151F00
:10527000261F371FC901B8012091640021602093C7
:105280006400611571058105910511F00E94F32AF2
:10529000EE24E39405EB11E0C0E0D0E0DD24D394EC
:1052A0008FB7F894409197015091980160919901BE
:1052B00070919A018FBFF0908C01FF2009F49EC07D
:1052C00010928C01209761F30E940000E9CF0E94A8
:1052D000921C87CF992029F0C430D10511F42E9A61
:1052E0002F9881E00E9409179E01D7FF04C0222752
:1052F00033272C1B3D0B27703327CE01D7FD079694
:1053000063E0959587956A95E1F7D7FF05C001970A
:10531000A801421B530B9A01BC017695762F662794
:1053200077956795F12CE12C2801421A530A8E3F9C
:105330005FEF950709F441C08E9C50018F9CB00C23
:105340001124DB01AB54BE4F50E040E0F501E258C0
:10535000F34D5F01FB01EB5CFD4F3F018F3F980771
:1053600081F0F501E40FF51FE491022E01C0EE0F6C
:105370000A94EAF75496FC915497EF2B5496EC93C9
:1053800054972115310599F0F501E40FF51FE491CB
:105390006301C40ED51EF0E01F01042C02C0359439
:1053A00027940A94E2F7F60134882328248A4F5F71
:1053B0005F4F11964835510589F6019660587F4F29
:1053C000EA94EF28B9F480E00E9409178FE090E09A
:1053D0000E94851C2196C931D10509F016CF99206C
:1053E00011F02F9A2D9880E991E00E94851C0E946F
:1053F000831C13CFEE24E394F12C99CF80918D017F
:10540000242F281B822F90910201291740F48F5FCF
:10541000891708F057CFE3BE889513BE53CFD092BB
:105420008C0140938D0180918A0190918B010196AE
:1054300090938B0180938A0180918F0180938E01DC
:105440000E948A1C80938F018F2DF80181118FEFAC
:10545000002481938193819381930394D1F7E09108
:105460009501F0E0EE0FFF1FE25DF24D8591949102
:10547000FC01099580E00E94091780919001E1E903
:10548000F1E0919191118F5F21E0E539F207C9F7C1
:1054900080939001873008F415CF109291011092FB
:1054A00092011092930110929401109290010ACFF0
:1054B0008F929F92AF92BF92CF92DF92EF92FF9224
:1054C000CF93DF93EC01688179818A819B8161159B
:1054D00071058105910521F464E279ED8BE597E092
:1054E0002DE133EF41E050E00E94472B49015A0182
:1054F0009B01AC01A7EAB1E40E94662B6B017C0121
:10550000ACEEB4EFA50194010E94742BC60ED71E19
:10551000E81EF91EF7FE06C081E0C81AD108E108AE
:1055200080E8F80AC882D982EA82FB82C701B60104
:105530009F77DF91CF91FF90EF90DF90CF90BF905A
:10554000AF909F908F9008958F929F92AF92BF924D
:10555000CF92DF92EF92FF9260910F017091100154
:1055600080911101909112016115710581059105DC
:1055700021F464E279ED8BE597E02DE133EF41E032
:1055800050E00E94472B49015A019B01AC01A7EA58
:10559000B1E40E94662B6B017C01ACEEB4EFA50177
:1055A00094010E94742BC60ED71EE81EF91EF7FE4A
:1055B00006C081E0C81AD108E10880E8F80AC09264
:1055C0000F01D0921001E0921101F0921201C70177
:1055D000B6019F77FF90EF90DF90CF90BF90AF9094
:1055E0009F908F90089560930F01709310018093A6
:1055F0001101909312010895BB274A3031F4992389
:1056000022F4BDE2909581959F4F0C94082BBB2707
:10561000FB015527AA27880F991FAA1FA41710F06E
:10562000A41B83955051B9F7A05DAA3308F0A95D7A
:10563000A193009779F7B111B1931192CB010C941A
:10564000212BDC01FC01672F71917723E1F7329761
:1056500004C07C916D9370836291AE17BF07C8F34D
:105660000895F999FECF92BD81BDF89A992780B52A
:105670000895262FF999FECF1FBA92BD81BD20BD96
:105680000FB6F894FA9AF99A0FBE01960895052E6E
:1056900097FB1EF400940E945E2B57FD07D00E94DA
:1056A000792B07FC03D04EF40C945E2B509540955B
:1056B000309521953F4F4F4F5F4F089590958095BE
:1056C000709561957F4F8F4F9F4F08950E949B2B40
:1056D000A59F900DB49F900DA49F800D911D112446
:1056E0000895B7FF0C94662B0E94662B821B930BC8
:1056F0000895A1E21A2EAA1BBB1BFD010DC0AA1F13
:10570000BB1FEE1FFF1FA217B307E407F50720F02A
:10571000A21BB30BE40BF50B661F771F881F991FA5
:105720001A9469F760957095809590959B01AC01EE
:10573000BD01CF010895A29FB001B39FC001A39FF7
:10574000700D811D1124911DB29F700D811D1124BA
:10575000911D0895AA1BBB1B51E107C0AA1FBB1FC7
:10576000A617B70710F0A61BB70B881F991F5A95ED
:10577000A9F780959095BC01CD010895EE0FFF1F0C
:0C5780000590F491E02D0994F894FFCFFF
:10578C001B0310FFFFFFFF00E10000000000000101
:10579C00000000020507090B0D1563000810182006
:1057AC0038363800C1808100000000000000671707
:0C57BC00D21888177D17CE178C17AA177B
:00000001FF
